:020000040000FA
:020000000628D0
:080008000B189E2885018316E8
:10001000F03086008501831288308B000B308D0014
:10002000203084008D0B152819280D088000840AC3
:100030001228BA20023085005B20023085005B2048
:100040000A3085005B20003085005B200C30850085
:100050005B20003085005B20013085005B20003094
:1000600085005B20063085005B20043092008320F1
:100070007D208320862089208C200A3092008020D9
:10008000772083207D20AE205420832086207A2074
:100090007D20023092078F20952002309207982011
:1000A000023092079B205328003085005B200130EE
:1000B00085005B200800861400008610BA20080026
:1000C0009300121A0C30121E083085005B201208B3
:1000D0000F3985005B20130E0F39103E85005B2021
:1000E00013080F39103E85005B20920A080041304A
:1000F000602008004430602008004530602008007F
:100100004730602008004D30602008004F306020EC
:1001100008005230602008004D30602008002A306E
:1001200060200800A0306020080030306020080007
:10013000303060200800303060200800BA20061AF5
:100140000000861A0000061BA920861B00000B1069
:1001500009001418AD2810309206080000309100F4
:10016000900005308F00910FB328900FB3288F0BAC
:10017000B328080025308C00C0208C0BBC28080058
:1001800000308D004C308E008D0FC42800008E0B87
:04019000C628080075
:00000001FF
