:020000040000FA
:020000000628D0
:080008000B18ED288501831699
:10001000F0308600850183120B308D002030840083
:100020008D0B132817280D088000840A10283D2105
:1000300002308500A72002308500A7200A30850005
:10004000A72000308500A7200C308500A7200030B5
:100050008500A72001308500A72000308500A7205B
:1000600006308500A72002309200CF20C920CF2083
:10007000D220D520D8200A309200CC20C320CF2017
:10008000C920003092003121A020940188308B00DB
:10009000CF20D220C620C92002309207DB20E420E6
:1000A00002309207E72002309207EA2007309200E0
:1000B00094185B285E281418652863281418612892
:1000C0005828672062286720642867206628003047
:1000D0008500A720003085000E308500A720003065
:1000E0008500A02076208F20003008004330B40027
:1000F0004130B5004530B6004630B7004230B80058
:100100004430B9004230BA004430BB004630BC0035
:100110004330BD004130BE004530BF000800003014
:100120009200E120E120E120E120E120E1201030F7
:100130009200E120E120E120E120E120E12008001F
:1001400000308500A72001308500A7200800861414
:10015000000086103D2108009300121A0C30121E78
:1001600008308500A72012080F398500A720130E3C
:100170000F39103E8500A72013080F39103E850067
:10018000A720920A08004130AC2008004430AC207F
:1001900008004530AC2008004730AC2008004D3046
:1001A000AC2008004F30AC2008005230AC200800D2
:1001B0005930AC2008002A30AC200800A030AC2018
:1001C0000800DB30AC2008003130AC2008003230B1
:1001D000AC2008003330AC2008003D21061EF8207A
:1001E000861E0521061F2A21861F15210B100900D6
:1001F0001418FE289418FE285D210800002108002C
:10020000920B08000F309200080014180B29941864
:100210000B29502108000D2108000F309202800F99
:100220001329920A080092010800003014060319ED
:100230001B29103008000630120603192129141456
:100240000800093012060319272994140800141411
:1002500094140800003014060319080010309206A8
:10026000080000309100900005308F00910F362972
:10027000900F36298F0B3629080025308C0043213A
:100280008C0B3F29080000308D004C308E008D0F04
:10029000472900008E0B492908009203DE20080040
:1002A0004D21921D5829121D5829063092005B29B4
:1002B000023092075B29DB2008004D219219632947
:1002C0000C3092006629043092026629DB20080077
:00000001FF
