:020000040000FA
:020000000828CE
:080008000B18D2290B19DD29A8
:10001000850186018316F030860085018312F8225F
:100020000230850024210230850024210A30850019
:1000300024210030850024210C308500242100304B
:1000400085002421013085002421003085002421F1
:100050000630850024212D21940102309200822156
:100060007921822185218B219D210A3092007C21DA
:1000700070218221792100309200EC222D2186010D
:10008000342194010030920082218521762179214A
:1000900003309207B22102309207B5210230920755
:1000A000B82106309200A02188308B00941859287E
:1000B0005C281418C628882814185F285628941815
:1000C000C6286228CE20FF206B21941D65288B1343
:1000D00019309200941A6F28141A77287E289A21D2
:1000E000792170217F210615EC22EC223E28702117
:1000F00097217C218615EC22EC223E289121942127
:10010000882179218B2103308C000C2394013E2817
:100110008316873081008312CE200630B500B701E8
:1001200009309A0098309900083092008B2179218B
:100130008221A3218E2130301A073E21AF216B216D
:100140008B160B1681018B17141AA9289419A9284C
:10015000A4288B01183092009121732185218B21D5
:100160007921A32137081A079A000A301A020318C6
:10017000C22030301A073E2186019401EC22EC2285
:100180008B013E28B2210A309A020800CE200C21B1
:10019000B601B7016B2194193E28CB288B132D2172
:1001A000D520EE200630B50008000230AA0000304D
:1001B000AB000430AC000530AD000130AE000330C0
:1001C000AF000130BA000330BB000530BC00023084
:1001D000BD000030BE000430BF00080000309200B7
:1001E000A621A621A621A621A621A6211030920093
:1001F000A621A621A621A621A621A6210800083015
:1002000092009121AC21AC21AC21AC21AC21AC21DC
:100210009A21B2018B170800083092002D303E2140
:10022000AF21023092072B303E21AF21B601B7013A
:10023000183092009121732185218B2179210D3075
:10024000B800CD218B1708008614000086100430FA
:100250008C00FE228C0B2929080000308500242107
:1002600001308500242108000030850024210C3055
:10027000850024219203A0303E2108009300121A29
:100280000C30121E08308500242112080F39850019
:100290002421130E0F39103E8500242113080F3935
:1002A000103E85002421920A080000308500242198
:1002B000003085000E3085002421003085000800C4
:1002C000121A0C30121E08308500242112080F3932
:1002D000850024210800003092006021552108008B
:1002E00041303E21080043303E21080044303E2189
:1002F000080045303E21080047303E2108004B30C1
:100300003E2108004D303E2108004F303E210800BC
:1003100050303E21080052303E21080054303E212A
:10032000080053303E21080055303E210800563069
:100330003E21080057303E21080059303E21080078
:100340002A303E210800A0303E210800DB303E214B
:100350000800FF303E210800A3303E210800303065
:100360003E21080031303E21080032303E21080095
:1003700033303E21080095000A3015020318C629C3
:10038000303015073E21A0303E210800B2210A304E
:100390009502303015073E2108001E3092003808C3
:1003A000BB210800F822061EF521861E0522061F25
:1003B0004522861F15220B1009000B11990B09000D
:1003C000983099009A03120895000D309200303051
:1003D0001A073E21150892006021EF2109001A0832
:1003E000031D080014168B130800003014060319AF
:1003F0000800FA290F301205950000301506031980
:10040000082B9203602155210800003014060319BF
:10041000152B0A2A0F301205950005301506031911
:10042000082B920A60215521080000301406031998
:10043000362A2A301207840000089500951B082BE5
:100440008017141DB0001419B100950007309505F0
:10045000413015073E2192031208141DB900001700
:1004600014194E22043094066B210800073012063E
:10047000031D3C2A141408000A301206031D422AE8
:10048000941408001414941408000030140603197E
:100490000800103092066021552108000330140531
:1004A00095000130150603195E2A0230150603195E
:1004B000622A033015060319662A08006A22031906
:1004C000702A752A6A220319922A982A6A22031925
:1004D0009E2AAF2A3108300695000730150508001E
:1004E0000823B50B0800941508000615E022C22267
:1004F00006110B30320603190800083032060319C2
:1005000094160430320603191416B20A321C08007D
:1005100008309200013032079500150C9207A9218E
:100520006B2108000823B70AB50B080094150800D2
:100530000615E022C222061192030800B70AB80A83
:10054000031994150D3092003708BB211E3092001C
:100550003808BB21063037060319D72A0800E022E5
:10056000301BD122311BD122C22209309200360821
:10057000BB211E3092003808BB210D303602031813
:10058000DC2A08002A30120784008013DB303E2169
:10059000390892002A30120784008013DB303E2194
:1005A0000800B60A0030B806031DB803080003307F
:1005B0008C000C23941508000823EC2294150800E5
:1005C00000309100900005308F00910FE52A900FC8
:1005D000E52A8F0BE52A08000030980097001030BC
:1005E0009600980FF12A970FF12A960BF12A08002E
:1005F00025308C00FE228C0BFA2A080000308D007A
:100600004C308E008D0F022B00008E0B042B080047
:100610000614E0220610080086150611E0220615D1
:100620008611E0228C0B0C2B08003A21921D1D2B09
:10063000121D1D2B063092001F2B02309207A021A5
:020640000800B0
:00000001FF
